:020000040800F2
:1000000000500020E91D0008510F00085D0F000896
:10001000630F0008690F00086F0F00080000000060
:10002000000000000000000000000000750F000844
:10003000810F0008000000008D0F0008990F0008D4
:10004000311E0008311E0008311E0008311E000854
:10005000311E0008311E0008311E0008311E000844
:10006000311E0008311E0008311E0008311E000834
:10007000311E0008311E0008311E0008311E000824
:10008000311E0008311E0008311E0008311E000814
:10009000311E0008311E0008311E0008311E000804
:1000A000311E0008311E0008311E0008311E0008F4
:1000B000311E0008311E0008311E0008311E0008E4
:1000C000311E0008311E0008311E0008311E0008D4
:1000D000311E0008311E0008CD060008311E000840
:1000E000311E0008311E0008311E0008000000000B
:1000F0000000000000000000000000000000000000
:0C01000000000000000000005FF808F1A3
:10010C0010B5054C237833B9044B13B10448AFF345
:10011C0000800123237010BD14000020000000009B
:10012C00D01E000808B5034B1BB103490348AFF3BD
:10013C00008008BD0000000018000020D01E000840
:10014C004FF0FF0C1CEAD0521EBF1CEAD15392EAAE
:10015C000C0F93EA0C0F6FD01A4480EA010C40028A
:10016C0018BF5FEA41211ED04FF0006343EA5010E4
:10017C0043EA5111A0FB01310CF00040B1F5000F26
:10018C003EBF490041EAD3715B0040EA010062F1D5
:10019C007F02FD2A1DD8B3F1004F40EBC25008BFBF
:1001AC0020F00100704790F0000F0CF0004C08BFDD
:1001BC0049024CEA502040EA51207F3AC2BFD2F1AA
:1001CC00FF0340EAC250704740F400004FF00003B8
:1001DC00013A5DDC12F1190FDCBF00F000407047F2
:1001EC00C2F10002410021FA02F1C2F1200200FA30
:1001FC0002FC5FEA310040F1000053EA4C0308BFF7
:10020C0020EADC70704792F0000F00F0004C02BF47
:10021C00400010F4000F013AF9D040EA0C0093F0C2
:10022C00000F01F0004C02BF490011F4000F013B1C
:10023C00F9D041EA0C018FE70CEAD15392EA0C0F8A
:10024C0018BF93EA0C0F0AD030F0004C18BF31F0F5
:10025C00004CD8D180EA010000F00040704790F0CB
:10026C00000F17BF90F0004F084691F0000F91F06F
:10027C00004F14D092EA0C0F01D142020FD193EA35
:10028C000C0F03D14B0218BF084608D180EA0100BD
:10029C0000F0004040F0FE4040F40000704740F099
:1002AC00FE4040F44000704780F0004002E000BF88
:1002BC0081F0004142001FBF5FEA410392EA030F45
:1002CC007FEA226C7FEA236C6AD04FEA1262D2EB8F
:1002DC001363C1BFD218414048404140B8BF5B4294
:1002EC00192B88BF704710F0004F40F4000020F02D
:1002FC007F4018BF404211F0004F41F4000121F043
:10030C007F4118BF494292EA030F3FD0A2F101028C
:10031C0041FA03FC10EB0C00C3F1200301FA03F1CA
:10032C0000F0004302D5494260EB4000B0F5000FED
:10033C0013D3B0F1807F06D340084FEA310102F1AC
:10034C000102FE2A51D2B1F1004F40EBC25008BF5E
:10035C0020F0010040EA03007047490040EB000028
:10036C00013A28BFB0F5000FEDD2B0FA80FCACF129
:10037C00080CB2EB0C0200FA0CF0AABF00EBC25056
:10038C0052421843BCBFD0401843704792F0000F44
:10039C0081F4000106BF80F400000132013BB5E797
:1003AC004FEA41037FEA226C18BF7FEA236C21D00D
:1003BC0092EA030F04D092F0000F08BF0846704772
:1003CC0090EA010F1CBF0020704712F07F4F04D140
:1003DC00400028BF40F00040704712F100723CBF53
:1003EC0000F50000704700F0004343F0FE4040F47D
:1003FC00000070477FEA226216BF08467FEA23633B
:10040C000146420206BF5FEA412390EA010F40F425
:10041C00800070474FF0000304E000BF10F0004371
:10042C0048BF40425FEA000C08BF704743F0964358
:10043C0001464FF000001CE050EA010208BF704773
:10044C004FF000030AE000BF50EA010208BF7047FA
:10045C0011F0004302D5404261EB41015FEA010C0F
:10046C0002BF84460146002043F0B64308BFA3F107
:10047C008053A3F50003BCFA8CF2083AA3EBC253E9
:10048C0010DB01FA02FC634400FA02FCC2F1200208
:10049C00BCF1004F20FA02F243EB020008BF20F03F
:1004AC000100704702F1200201FA02FCC2F12002A5
:1004BC0050EA4C0021FA02F243EB020008BF20EA9A
:1004CC00DC7070474FEA4002B2F1FE4F0FD34FF091
:1004DC009E03B3EB12620DD94FEA002343F00043A5
:1004EC0010F0004F23FA02F018BF404270474FF053
:1004FC000000704712F1610F01D1420205D110F0DA
:10050C00004008BF6FF0004070474FF0000070478C
:10051C0080B500AF00214FF0804001F07EFA00BFA3
:10052C004FF0804001F087FA0346B3F57A7FF7D39A
:10053C0000BF00BF80BD80B582B000AF786004E022
:10054C00FFF7E6FF7B68013B7B607B68002BF7D1F4
:10055C0000BF00BF0837BD4680BD000080B582B02B
:10056C0000AF0346FB71FB799BB21946074801F0BB
:10057C0033F900BF8021054801F03FF90346002BF9
:10058C00F8D000BF00BF0837BD4680BD0044004016
:10059C0080B584B000AF78600023FB6009E0FB6895
:1005AC007A6813441B781846FFF7D8FFFB680133B1
:1005BC00FB60FB687A6813441B78002BEFD100BFFB
:1005CC0000BF1037BD4680BD80B582B000AF7860EB
:1005DC001248FFF7DDFF4FF4FA70FFF7ACFF7868B5
:1005EC00FFF7D6FF0E48FFF7D3FF4FF4FA70FFF773
:1005FC00A2FF1A210B4801F0EFF800BF8021094837
:10060C0001F0FBF80346002BF8D04FF47A70FFF79B
:10061C0092FF00BF0837BD4680BD00BFE81E000832
:10062C00041F00080044004080B500AF1C48FFF7D1
:10063C00AFFF4FF4FA70FFF77EFF1A48FFF7A8FFE1
:10064C004FF4FA70FFF777FF1748FFF7A1FF4FF44D
:10065C00FA70FFF770FF1548FFF79AFF4FF4FA7026
:10066C00FFF769FF1248FFF793FF4FF4FA70FFF79B
:10067C0062FF1048FFF78CFF4FF4FA70FFF75BFF37
:10068C000D48FFF785FF4FF4FA70FFF754FF0B4846
:10069C00FFF79AFF4FF4FA70FFF74DFF00BF80BDD4
:1006AC00081F0008101F0008181F0008201F000852
:1006BC00301F00083C1F0008501F00085C1F00087A
:1006CC0080B500AF40F22551294801F0B1F803463E
:1006DC00002B4AD0264B9B889BB2DAB2254B1A7062
:1006EC00254B1B785A1CD1B2234A11701A46214B48
:1006FC001978224B9954204B1B785A2B02D91E4B3C
:10070C0000221A701B4B1B782B2B03D1194B1A7818
:10071C001B4B1A70174B1B78432B03D1154B1A78B4
:10072C00184B1A70134B1B784D2B03D1114B1A78A5
:10073C00154B1A700F4B1B78542B03D10D4B1A7899
:10074C00124B1A700E4B1B782B2B0ED10D4B1B78AA
:10075C00432B0AD10C4B1B784D2B06D10B4B1B7822
:10076C00542B02D10A4B01221A6000BF80BD00BF7E
:10077C000044004099000020920000203800002026
:10078C0034000020980000209B0000209A000020DC
:10079C009400002080B400AF0C4B00221A700BE0C8
:1007AC000A4B1B781A460A4B20219954074B1B788D
:1007BC000133DAB2054B1A70044B1B78592BEFD965
:1007CC0000BF00BFBD4680BC704700BF3500002095
:1007DC003800002080B500AF0448FFF7D9FE4FF475
:1007EC00FA70FFF7A8FE00BF80BD00BF741F0008A1
:1007FC0080B487B000AF7860396000237B613B68C0
:10080C00013B3B6118E07B697A6813441B78FB6001
:10081C003B697A681A447B6979680B4412781A70C0
:10082C003B697A681344FA68D2B21A707B69013357
:10083C007B613B69013B3B617A693B699A42E2DB34
:10084C0000BF00BF1C37BD4680BC704780B586B06A
:10085C0000AFF860B9607A6000237B611DE0FA6834
:10086C001D4B83FB02139910D317C91A0B469B001F
:10087C000B445B00D11ACAB27B69591C79611946C9
:10088C00BB680B443032D2B21A70FB68124A82FB3E
:10089C0003129210DB17D31AFB60FB68002BDED11E
:1008AC0007E07B695A1C7A611A46BB6813443022F4
:1008BC001A707A697B689A42F3DB7969B868FFF73A
:1008CC0097FF7B69BA68134400221A707B6918463B
:1008DC001837BD4680BD00BF6766666680B485B0BC
:1008EC0000AF786039600123BB600023FB6007E038
:1008FC00BB687A6802FB03F3BB60FB680133FB60E7
:10090C00FA683B689A42F3DBBB6818461437BD465D
:10091C0080BC704780B588B000AFF860B9607A6071
:10092C00F868FFF7CFFD0346FB61F869FFF776FD2A
:10093C0003461946F868FFF7BBFC0346BB6100226F
:10094C00B968F869FFF782FF78617B68002B1ED0CD
:10095C007B69BA6813442E221A7079680A20FFF753
:10096C00BDFF03461846FFF759FD03461946B86903
:10097C00FFF7E6FB0346BB61B869FFF7A3FD7B6994
:10098C000133BA6813447A681946FFF75FFF00BF5A
:10099C002037BD4680BD000080B598B000AF012166
:1009AC00012000F0DBFD0023A7F846304FF6FF7363
:1009BC00A7F848304723A7F8443007F144031946F9
:1009CC004FF0804000F08EFF01214FF0804001F08D
:1009DC0005F80121102000F0A3FD102387F8433007
:1009EC004FF40053A7F84030032387F8423007F147
:1009FC0040031946BB4800F0EBFB4FF40051B948DB
:100A0C0000F0BBFC0121042000F08AFD102387F8C4
:100A1C0043304FF47063A7F84030032387F842301B
:100A2C0007F140031946B04800F0D2FB4FF4807137
:100A3C00AD4800F0B0FC4FF40071AB4800F0ABFCDB
:100A4C004FF48061A84800F0A6FC4FF40061A64862
:100A5C0000F0A1FC482387F843304FF48053A7F8EB
:100A6C004030032387F8423007F1400319469E4873
:100A7C0000F0AEFB182387F843300423A7F840306E
:100A8C00032387F8423007F140031946964800F0DB
:100A9C009FFB042387F843300823A7F84030032337
:100AAC0087F8423007F1400319468F4800F090FB5D
:100ABC00002387F843300123A7F84030032387F83D
:100ACC00423007F140031946874800F081FB0121B1
:100ADC004FF4003000F042FD4FF416533B630023FB
:100AEC00BB870C237B8700233B870023FB860023DB
:100AFC00BB8607F1300319467C4800F04DFD0121FF
:100B0C007A4800F003FE012240F22551774800F0AC
:100B1C001CFE262387F82C30002387F82D30002369
:100B2C0087F82E30012387F82F3007F12C03184655
:100B3C0000F0ECFA01214FF4007000F0F1FC0123FD
:100B4C007B7700237B624FF460233B620023BB6105
:100B5C0000233B77012387F8283007F11803194647
:100B6C00634800F075FF052301220021604801F065
:100B7C0043F801215E4800F0BDFF012001F012F99D
:100B8C005B4800F0D2FF00BF594800F0DDFF034680
:100B9C00002BF9D1564800F0EEFF00BF544800F08E
:100BAC00F9FF0346002BF9D10121514801F009F856
:100BBC00FFF73AFD0023FB6500237B650023BB6533
:100BCC000EE04B4801F0E1F803467B65FA6D7B6D56
:100BDC001344FB650120FFF7AEFCBB6D0133BB6515
:100BEC00BB6D092BEDDDFB6D424A82FB03129210AB
:100BFC00DB17D31A1846FFF711FC03463B654FF47D
:100C0C008051394800F0A0FB0346002B0ED1364B27
:100C1C00DB68354A83F48053D36000BF4FF48051B6
:100C2C00314800F091FB0346002BF7D0324B1B6888
:100C3C00002BBFD0304B00221A603048FFF7A8FCC5
:100C4C004FF4FA60FFF777FC2D492E4801F022F99A
:100C5C0003462D4A13602C4B1B6804222849184666
:100C6C0001F006F90346002B08D14FF400511D4842
:100C7C0000F091FB2548FFF7A7FC18E02449214818
:100C8C0001F008F90346204A13601F4B1B6804222D
:100C9C001F49184601F0ECF80346002B07D14FF41E
:100CAC000051104800F069FB1A48FFF78DFC1A49F7
:100CBC00144801F0EFF80346134A1360124B1B68FB
:100CCC0004221549184601F0D3F80346002B27D10E
:100CDC004FF48071044800F050FB1048FFF774FC8F
:100CEC0037E000BF00100140000801400044004004
:100CFC000024014067666666940000208C1F000883
:100D0C00981F00083800002030000020A01F0008A9
:100D1C00B81F0008C01F0008D81F0008E01F0008FB
:100D2C006E496F4801F0B6F803466E4A13606D4B7E
:100D3C001B6804226949184601F09AF80346002BF7
:100D4C0007D14FF48071684800F025FB6748FFF726
:100D5C003BFC6749624801F09DF80346614A136009
:100D6C00604B1B6804226249184601F081F8034667
:100D7C00002B08D14FF400715B4800F0FEFA5D487F
:100D8C00FFF722FC18E05C49554801F083F8034654
:100D9C00544A1360534B1B6804225749184601F000
:100DAC0067F80346002B07D14FF400714E4800F052
:100DBC00F2FA5248FFF708FC5149494801F06AF829
:100DCC000346484A1360474B1B6804224C4918469B
:100DDC0001F04EF80346002B6CD13B1D0222194644
:100DEC00386DFFF797FD4748FFF7D2FB4FF4FA70C9
:100DFC00FFF7A1FB4FF400713B4800F0A5FA034646
:100E0C00012B02D14048FFF7C3FB4FF40071364869
:100E1C0000F09AFA0346002B02D13C48FFF7B8FBCE
:100E2C004FF48071304800F08FFA0346012B02D149
:100E3C003748FFF7ADFB4FF480712B4800F084FA74
:100E4C000346002B02D13348FFF7A2FB4FF40051AD
:100E5C00314800F079FA0346002B02D12F48FFF7F6
:100E6C0097FB4FF400512C4800F06EFA0346012B0F
:100E7C0002D12B48FFF78CFB2A48FFF789FB3B1D5F
:100E8C001846FFF785FB2848FFF782FB4FF4FA70F2
:100E9C00FFF751FB1A21254800F09EFC00BF802172
:100EAC00224800F0AAFC0346002BF8D04FF47A70CD
:100EBC00FFF741FBFFF76EFCFFF78CFC1C4B00228D
:100ECC001A701C4B00221A701B4B00221A701B4B01
:100EDC0000221A701A4B00221A706BE6F81F0008D9
:100EEC0038000020300000200008014000200008DD
:100EFC001820000820200008382000084020000896
:100F0C0058200008E81E0008602000087C2000081B
:100F1C0098200008B420000800100140D0200008E0
:100F2C00EC20000808210008041F000800440040C1
:100F3C009900002034000020980000209B00002025
:100F4C009A00002080B400AF00BFBD4680BC704743
:100F5C0080B400AFFEE780B400AFFEE780B400AF12
:100F6C00FEE780B400AFFEE780B400AF00BFBD4623
:100F7C0080BC704780B400AF00BFBD4680BC7047DA
:100F8C0080B400AF00BFBD4680BC704780B400AFDA
:100F9C0000BFBD4680BC704780B500AF154B1B68C9
:100FAC00144A43F001031360124B5A681149124B57
:100FBC0013404B600F4B1B680E4A23F0847323F4D1
:100FCC00803313600B4B1B680A4A23F48023136095
:100FDC00084B5B68074A23F4FE035360054B4FF440
:100FEC001F029A6000F00CF8044B4FF000629A60FC
:100FFC0000BF80BD001002400000FFF800ED00E0D3
:10100C0080B500AF00F002F800BF80BD80B483B0A3
:10101C0000AF00237B6000233B603A4B1B68394ACE
:10102C0043F480331360374B1B6803F400333B608D
:10103C007B6801337B603B68002B03D17B68B3F585
:10104C00A06FF0D12F4B1B6803F40033002B02D0A0
:10105C0001233B6001E000233B603B68012B4BD13B
:10106C00294B1B68284A43F010031360264B1B685E
:10107C00254A23F003031360234B1B68224A43F0D9
:10108C00020313601F4B1F4A5B6853601D4B1D4AC4
:10109C005B6853601B4B5B681A4A43F48063536074
:1010AC00184B5B68174A23F47C135360154B5B6831
:1010BC00144A43F4E8135360124B1B68114A43F073
:1010CC008073136000BF0F4B1B6803F00073002B81
:1010DC00F9D00C4B5B680B4A23F003035360094BAC
:1010EC005B68084A43F00203536000BF054B5B6822
:1010FC0003F00C03082BF9D100BF0C37BD4680BCA4
:10110C00704700BF001002400020024080B487B03E
:10111C0000AF786000237B6100233B610F23FB60F1
:10112C007B68DB78002B3AD0274BDB68DB431B0A50
:10113C0003F007037B617B69C3F104033B61FA682D
:10114C007B6922FA03F3FB607B685B781A463B6988
:10115C0002FA03F37B617B689B781A46FB681340A9
:10116C007A6913437B617B691B017B61174A7B683E
:10117C001B787969C9B213440A4683F800237B684B
:10118C001B7803F01F0311497A6812785209D2B206
:10119C001046012202FA03F341F820300FE07B687D
:1011AC001B7803F01F0309497A6812785209D2B2EE
:1011BC00104601229A4000F1200341F8232000BF81
:1011CC001C37BD4680BC704700ED00E000E100E03C
:1011DC0080B489B000AF786039600023FB610023D4
:1011EC003B610023BB610023FB6000237B61002378
:1011FC00BB603B68DB7803F00F03FB613B68DB787B
:10120C0003F01003002B05D03B689B781A46FB6952
:10121C001343FB613B681B88DBB2002B44D07B681B
:10122C001B687B610023BB6138E00122BB6902FAB9
:10123C0003F3FB603B681B881A46FB6813403B6159
:10124C003A69FB689A4226D1BB699B00FB600F226E
:10125C00FB6802FA03F3BB60BB68DB437A6913409B
:10126C007B61FA69FB6802FA03F37A6913437B61C9
:10127C003B68DB78282B05D10122BB699A407B683F
:10128C005A6108E03B68DB78482B04D10122BB692A
:10129C009A407B681A61BB690133BB61BB69072B40
:1012AC00C3D97B687A691A603B681B88FF2B46D9C7
:1012BC007B685B687B610023BB613AE0BB690833E8
:1012CC00012202FA03F3FB603B681B881A46FB6899
:1012DC0013403B613A69FB689A4227D1BB699B007A
:1012EC00FB600F22FB6802FA03F3BB60BB68DB43B5
:1012FC007A6913407B61FA69FB6802FA03F37A6935
:10130C0013437B613B68DB78282B05D1BB69083321
:10131C0001229A407B685A613B68DB78482B05D1E7
:10132C00BB69083301229A407B681A61BB6901339F
:10133C00BB61BB69072BC1D97B687A695A6000BF56
:10134C002437BD4680BC704780B485B000AF786050
:10135C000B467B800023FB737B689A687B88134069
:10136C00002B02D00123FB7301E00023FB73FB7BFA
:10137C0018461437BD4680BC704780B483B000AFAC
:10138C0078600B467B807A887B681A6100BF0C37CB
:10139C00BD4680BC704780B483B000AF78600B460C
:1013AC007B807A887B685A6100BF0C37BD4680BC55
:1013BC007047000080B487B000AF786000237B6179
:1013CC0000233B610023FB600023BB604F4B5B6839
:1013DC0003F00C037B617B69082B11D07B69082B14
:1013EC003AD87B69002B03D07B69042B04D033E003
:1013FC007B68474A1A6033E07B68454A1A602FE0E5
:10140C00424B5B6803F470133B61404B5B6803F425
:10141C008033FB603B699B0C02333B61FB68002B08
:10142C0006D13B693B4A02FB03F27B681A6017E06A
:10143C00364B5B6803F40033002B06D03B69354A0E
:10144C0002FB03F27B681A600AE03B69304A02FB3C
:10145C0003F27B681A6003E07B682D4A1A6000BFB8
:10146C002A4B5B6803F0F0037B617B691B097B6192
:10147C00294A7B6913441B78DBB2BB607B681A6812
:10148C00BB68DA407B685A60204B5B6803F4E0630E
:10149C007B617B691B0A7B611F4A7B6913441B7848
:1014AC00DBB2BB607B685A68BB68DA407B689A60C9
:1014BC00164B5B6803F460537B617B69DB0A7B61D1
:1014CC00154A7B6913441B78DBB2BB607B685A6896
:1014DC00BB68DA407B68DA600C4B5B6803F4404312
:1014EC007B617B699B0B7B610C4A7B6913441B788A
:1014FC00DBB2BB607B68DA68BB68B2FBF3F27B687B
:10150C001A6100BF1C37BD4680BC704700100240FA
:10151C0000127A0000093D0000000020100000209D
:10152C0080B483B000AF78600B46FB70FB78002B67
:10153C0006D0094B9A6908497B6813438B6106E016
:10154C00054B9A697B68DB43034913408B6100BFF1
:10155C000C37BD4680BC70470010024080B483B08D
:10156C0000AF78600B46FB70FB78002B06D0094B64
:10157C00DA6908497B681343CB6106E0054BDA69ED
:10158C007B68DB4303491340CB6100BF0C37BD467E
:10159C0080BC70470010024080B58CB000AF786002
:1015AC0039600023FB620023BB6200237B620023B3
:1015BC003B620023FB617B68FB617B681B8A9BB2EF
:1015CC00FB62FA6A4CF6FF731340FB623B68DB88E4
:1015DC001A46FB6A1343FB62FB6A9AB27B681A8257
:1015EC007B689B899BB2FB62FA6A4EF6F31313403D
:1015FC00FB623B689A883B681B8913439AB23B6831
:10160C005B8913439BB21A46FB6A1343FB62FB6A6A
:10161C009AB27B689A817B689B8A9BB2FB62FA6A5E
:10162C004FF6FF431340FB623B689B891A46FB6AEB
:10163C001343FB62FB6A9AB27B689A8207F1080338
:10164C001846FFF7B7FEFB692E4A934202D17B691D
:10165C00BB6201E03B69BB627B689B899BB21BB29E
:10166C00002B0CDABA6A13469B0013449A001A44F6
:10167C003B681B685B00B2FBF3F37B620BE0BA6A5E
:10168C0013469B0013449A001A443B681B689B004A
:10169C00B2FBF3F37B627B6A1B4AA2FB03235B095D
:1016AC001B01FB62FB6A1B09642202FB03F37A6ACF
:1016BC00D31A3B627B689B899BB21BB2002B0CDA62
:1016CC003B6ADB003233104AA2FB03235B0903F0B5
:1016DC000703FA6A1343FB620BE03B6A1B013233CC
:1016EC00094AA2FB03235B0903F00F03FA6A1343B5
:1016FC00FB62FB6A9AB27B681A8100BF3037BD4629
:10170C0080BD00BF003801401F85EB5180B483B011
:10171C0000AF78600B46FB70FB78002B08D07B6821
:10172C009B899BB243F400539AB27B689A8107E081
:10173C007B689B899BB223F400539AB27B689A8195
:10174C0000BF0C37BD4680BC704780B487B000AF7B
:10175C0078600B467B8013467B7000233B61002333
:10176C00FB600023BB6000237B617B687B617B8813
:10177C00DBB25B09DBB23B617B8803F01F03FB60D0
:10178C000122FB6802FA03F3BB603B69012B03D116
:10179C007B690C337B6109E03B69022B03D17B69CC
:1017AC0010337B6102E07B6914337B617B78002B07
:1017BC0006D07B6919687B69BA680A431A6006E02F
:1017CC007B691968BB68DA437B690A401A6000BF01
:1017DC001C37BD4680BC704780B483B000AF7860C6
:1017EC000B467B807B88C3F308039AB27B689A8094
:1017FC0000BF0C37BD4680BC704780B485B000AFCD
:10180C0078600B467B800023FB737B681B889AB245
:10181C007B8813409BB2002B02D00123FB7301E0A9
:10182C000023FB73FB7B18461437BD4680BC704706
:10183C0080B487B000AF78600B467B800023FB60E0
:10184C0000237B610023BB600023FB747B88DBB22D
:10185C005B09DBB2BB607B8803F01F037B61012259
:10186C007B6902FA03F37B61BB68012B07D17B68B0
:10187C009B899BB21A467B6913407B6111E0BB6864
:10188C00022B07D17B681B8A9BB21A467B691340DB
:10189C007B6106E07B689B8A9BB21A467B6913408E
:1018AC007B617B881B0A9BB2FB600122FB6802FAFE
:1018BC0003F3FB607B681B889BB21A46FB681340E2
:1018CC00FB607B69002B05D0FB68002B02D0012349
:1018DC00FB7401E00023FB74FB7C18461C37BD46EF
:1018EC0080BC704780B485B000AF7860396000234D
:1018FC00FB817B681B88FB817B682E4A934213D04B
:10190C007B682D4A93420FD07B68B3F1804F0BD08C
:10191C007B682A4A934207D07B68294A934203D0BA
:10192C007B68284A934208D1FB8923F07003FB8122
:10193C003B685A88FB891343FB817B68224A93429C
:10194C000CD07B68214A934208D0FB8923F4407366
:10195C00FB813B68DA88FB891343FB817B68FA893E
:10196C001A803B689A887B689A853B681A887B68E2
:10197C001A857B680F4A93420FD07B680E4A9342BC
:10198C000BD07B68124A934207D07B68114A934272
:10199C0003D07B68104A934204D13B681B7A9AB2FD
:1019AC007B681A867B6801229A8200BF1437BD4679
:1019BC0080BC7047002C0140003401400004004002
:1019CC0000080040000C00400010004000140040D3
:1019DC0000400140004401400048014080B483B005
:1019EC0000AF78600B46FB70FB78002B08D07B684F
:1019FC001B889BB243F001039AB27B681A8007E004
:101A0C007B681B889BB223F001039AB27B681A8017
:101A1C0000BF0C37BD4680BC704780B483B000AFAC
:101A2C0078600B467B807B687A889A8400BF0C3781
:101A3C00BD4680BC704780B483B000AF78607B68D3
:101A4C009B8C9BB218460C37BD4680BC704700007F
:101A5C0080B485B000AF786039600023FB60002350
:101A6C00FB727B685B68FB60FB6823F4702323F4D8
:101A7C008073FB603B681A683B681B791B0213433D
:101A8C00FA681343FB607B68FA685A607B689B6852
:101A9C00FB60FA68164B1340FB603B68DA683B68E6
:101AAC009B681A433B685B795B001343FA681343EA
:101ABC00FB607B68FA689A607B68DB6AFB60FB689A
:101ACC0023F47003FB603B681B7C013BDAB2FB7AAE
:101ADC001343FB72FB7A1B05FA681343FB607B68AC
:101AEC00FA68DA6200BF1437BD4680BC704700BF8D
:101AFC00FDF7F1FF80B483B000AF78600B46FB704C
:101B0C00FB78002B06D07B689B6843F001027B6856
:101B1C009A6005E07B689B6823F001027B689A6001
:101B2C0000BF0C37BD4680BC704780B483B000AF9B
:101B3C0078607B689B6843F008027B689A6000BF02
:101B4C000C37BD4680BC704780B485B000AF786060
:101B5C000023FB737B689B6803F00803002B02D007
:101B6C000123FB7301E00023FB73FB7B1846143746
:101B7C00BD4680BC704780B483B000AF78607B6892
:101B8C009B6843F004027B689A6000BF0C37BD462B
:101B9C0080BC704780B485B000AF78600023FB73C5
:101BAC007B689B6803F00403002B02D00123FB73BA
:101BBC0001E00023FB73FB7B18461437BD4680BC49
:101BCC00704780B483B000AF78600B46FB70FB7835
:101BDC00002B06D07B689B6843F4A0027B689A605C
:101BEC0005E07B689B6823F4A0027B689A6000BFC9
:101BFC000C37BD4680BC704780B485B000AF7860B0
:101C0C00084611461A460346FB700B46BB7013463A
:101C1C007B700023FB600023BB60FB78092B23D96E
:101C2C007B68DB68FB60FB78A3F10A0213465B0060
:101C3C001344072202FA03F3BB60BB68DB43FA6868
:101C4C001340FB607978FB78A3F10A0213465B0022
:101C5C00134401FA03F3BB60FA68BB681343FB60DF
:101C6C007B68FA68DA601EE07B681B69FB60FA78B7
:101C7C0013465B001344072202FA03F3BB60BB68F4
:101C8C00DB43FA681340FB607978FA7813465B0003
:101C9C00134401FA03F3BB60FA68BB681343FB609F
:101CAC007B68FA681A61BB78062B21D87B685B6B62
:101CBC00FB60BB785A1E13469B0013441F2202FA8A
:101CCC0003F3BB60BB68DB43FA681340FB60F97835
:101CDC00BB785A1E13469B00134401FA03F3BB60F6
:101CEC00FA68BB681343FB607B68FA685A6347E089
:101CFC00BB780C2B21D87B681B6BFB60BB78DA1F85
:101D0C0013469B0013441F2202FA03F3BB60BB680B
:101D1C00DB43FA681340FB60F978BB78DA1F134693
:101D2C009B00134401FA03F3BB60FA68BB681343CE
:101D3C00FB607B68FA681A6322E07B68DB6AFB60F5
:101D4C00BB78A3F10D0213469B0013441F2202FA29
:101D5C0003F3BB60BB68DB43FA681340FB60F978A4
:101D6C00BB78A3F10D0213469B00134401FA03F355
:101D7C00BB60FA68BB681343FB607B68FA68DA6285
:101D8C0000BF1437BD4680BC704780B483B000AF31
:101D9C0078607B68DB6C9BB218460C37BD4680BC08
:101DAC007047000080B483B000AF0346FB71FB7931
:101DBC00002B06D0084B9B68074A43F40003936042
:101DCC0005E0054B9B68044A23F40003936000BFB5
:101DDC000C37BD4680BC704700240140002103E055
:101DEC000B4B5B58435004310A480B4B42189A4238
:101DFC00F6D30A4A02E0002342F8043B084B9A420D
:101E0C00F9D3FFF7C9F800F00FF8FEF7C5FD7047DE
:101E1C0024210008000000201400002014000020E1
:101E2C009C000020FEE7000070B500260C4D0D4C08
:101E3C00641BA410A64209D100F044F800260A4DF8
:101E4C000A4C641BA410A64205D170BD55F8043B86
:101E5C0098470136EEE755F8043B98470136F2E710
:101E6C001C2100081C2100081C210008202100084E
:101E7C0010B56AB10139841810F8013B11F8012F23
:101E8C00934203D1A04201D0002BF5D1981A10BD7A
:101E9C001046FCE7F0B50C7864B103461A78184686
:101EAC005E1C0AB9104605E0944208D10D4615F89F
:101EBC00012F02B9F0BD13F8017F9742F7D03346DA
:101ECC00ECE70000F8B500BFF8BC08BC9E467047B4
:0C1EDC00F8B500BFF8BC08BC9E4670477B
:101EE80041542B434D47533D222B3834333334363A
:101EF8003130303335220D0A000000000A0D000091
:101F080041540D0A00000000415445300D0A0000FC
:101F1800415426570D0A000041542B435343533D67
:101F28002247534D220D0A0041542B434D47463D4D
:101F3800310D0A0041542B434E4D493D312C322C72
:101F4800302C302C300D0A0041542B435341530D93
:101F58000A0000004B686F6920646F6E6720786F15
:101F68006E6720726F6921210000000041542B43E5
:101F78004D4744413D2244454C20414C4C220D0ADA
:101F88000000000041542B434D47523D310D0A00DB
:101F98004E6775310000000064612062617420643E
:101FA800656E2070686F6E67206E677500000000B0
:101FB8004E6775300000000064612074617420640D
:101FC800656E2070686F6E67206E67750000000090
:101FD8004B68616368310000646120626174206449
:101FE800656E2070686F6E67206B686163680000BB
:101FF8004B68616368300000646120746174206418
:10200800656E2070686F6E67206B6861636800009A
:1020180042657031000000006461206261742064D0
:10202800656E2070686F6E67206265700000000042
:10203800426570300000000064612074617420649F
:10204800656E2070686F6E67206265700000000022
:10205800696E666F0000000064656E2070686F6EC0
:1020680067206265702064616E67206261740D0A82
:102078000000000064656E2070686F6E67206265FE
:10208800702064616E67207461740D0A000000009E
:1020980064656E2070686F6E67206B686163682086
:1020A80064616E67206261740D0A000064656E20C9
:1020B80070686F6E67206B686163682064616E6723
:1020C800207461740D0A000064656E2070686F6E7C
:1020D80067206E67752064616E67206261740D0AFF
:1020E8000000000064656E2070686F6E67206E6780
:1020F800752064616E67207461740D0A0000000029
:102108006E6869657420646F2070686F6E67206CF4
:04211800613A200008
:04211C003101000885
:042120000D010008A5
:102124000000000001020304010203040607080979
:042134000204060893
:0400000508001DE9E9
:00000001FF
